:020000040800F2
:1000000008070020890100081F100008990E000849
:100010001D1000088F0200081511000800000000E4
:100020000000000000000000000000002310000895
:1000300091020008000000002110000825100008AF
:10004000A3010008A3010008A3010008A301000800
:10005000A3010008A3010008A3010008A3010008F0
:10006000A3010008A3010008A3010008A3010008E0
:10007000A3010008A3010008A3010008A3010008D0
:10008000A3010008A3010008A3010008A3010008C0
:10009000A3010008A3010008A3010008A3010008B0
:1000A000A3010008A3010008A3010008A3010008A0
:1000B000A3010008A301000800000000A30100083C
:1000C000A30100080000000000000000A3010008D8
:1000D00000000000A3010008A301000800000000C8
:1000E000A3010008A3010008A301000800F002F822
:1000F00000F03AF80AA090E8000C82448344AAF188
:100100000107DA4501D100F02FF8AFF2090EBAE885
:100110000F0013F0010F18BFFB1A43F0010318473B
:100120004012000060120000103A24BF78C878C165
:10013000FAD8520724BF30C830C144BF04680C60ED
:10014000704700000023002400250026103A28BF35
:1001500078C1FBD8520728BF30C148BF0B60704739
:100160001FB51FBD10B510BD00F058F81146FFF7C0
:10017000F7FF01F0B7F800F076F803B4FFF7F2FFED
:1001800003BC00F07DF8000009488047094800479B
:10019000FEE7FEE7FEE7FEE7FEE7FEE7FEE7FEE737
:1001A000FEE7FEE704480549054A064B7047000094
:1001B00029100008ED0000080801002008070020B1
:1001C00008030020080300204FF0000200B513468A
:1001D00094469646203922BFA0E80C50A0E80C5067
:1001E000B1F12001BFF4F7AF090728BFA0E80C5018
:1001F00048BF0CC05DF804EB890028BF40F8042B11
:1002000008BF704748BF20F8022B11F0804F18BF7D
:1002100000F8012B7047704770477047754600F033
:100220002BF8AE4605006946534620F00700854688
:1002300018B020B5FFF7B6FFBDE820404FF000062C
:100240004FF000074FF000084FF0000B21F00701BE
:10025000AC46ACE8C009ACE8C009ACE8C009ACE801
:10026000C0098D46704710B50446AFF300802046A4
:10027000BDE81040FFF781BF00487047A80000208C
:1002800001491820ABBEFEE7260002007047FEE7DA
:10029000704772B6FEE7000070B5044600F0EAF859
:1002A0000546601C02D004480078044400F0E2F8DF
:1002B000401BA042FAD370BD080000202DE9F84F82
:1002C000DFF894910024A9F1040B23464FF00F08A6
:1002D00009F1040AABF1040EB7E00127A7403A4048
:1002E000BA4272D1DFF874C14D68A5EB0C066545C2
:1002F0002BD00DDC032D34D005DC35B3012D19D006
:10030000022D2FD11BE0112D16D0122D2AD119E06C
:10031000B6F5881F19D006DCB6F5803F15D0B6F5C6
:10032000801F1FD111E0B6F5001F0ED0B6F5041FD7
:1003300018D10AE0CB6815E0CB681B1D12E0CB6832
:1003400008330FE0CB680C330CE08B682BB1012B2A
:100350004FF0080303D0476104E0042302E0076183
:1003600000E00023FF2A01D8064601E000F1040660
:100370004FEA840501D9A5F12005376808FA05FC84
:1003800027EA0C0703FA05F547EA050737604D68C9
:10039000ED0059D5324DAE6946F00106AE61AD694A
:1003A00024F0030605F0010500952E4D7719BE686F
:1003B000A5072D0F08FA05FC26EA0C06DFF8A8C0F1
:1003C000604503D14FF0000C10E03DE0DFF89CC029
:1003D000604502D14FF0010C08E0DFF894C06045A1
:1003E00002D14FF0020C01E04FF0030C0CFA05FCB7
:1003F0004CEA060CC7F808C04D68D9F80060ED0259
:100400004D4601D5164300E096432E604D68DAF85C
:100410000060AD02554601D5164300E096432E60BC
:100420004D68DBF80060AD035D4601D5164300E082
:1004300096432E604D68DEF80060ED03754601D5E9
:10044000164300E096432E60641C0A6832FA04F5F5
:100450007FF443AFBDE8F88F08040140000011109D
:10046000001002400000014000080140000C014063
:10047000001001400148806870470000080000201B
:1004800002488168027811448160704708000020AA
:10049000074810B5016841F010010160032000F029
:1004A00067F80F2000F006F800F024F8002010BDD7
:1004B0000020024070B50D4D04464FF47A71287843
:1004C000B1FBF0F00A490968B1FBF0F000F0B6FAB0
:1004D00048B9102C07D200222146501E00F028F8FF
:1004E00000206C6070BD012070BD0000080000207D
:1004F000140000200C4808B5816941F001018161B8
:10050000816901F001010091C16941F08051C1612F
:10051000C069064900F080500090486820F0E06013
:1005200040F00070486008BD00100240000001402B
:10053000F0B40E4B1B68C3F30223C3F10704042C71
:1005400000D904241D1D072D01D2002300E0DB1E6D
:10055000012606FA04F56D1E0D409D409E40761E54
:10056000164045EA0601F0BC00F0ABBE0CED00E021
:10057000064A00F0070110684FF6FF03184040EAF2
:100580000120034908431060704700000CED00E0B3
:100590000000FA052DE9F0470D46040067D0DFF8AA
:1005A0001881D8F8000000F00700A8420CD2D8F853
:1005B000001021F007012943C8F80010D8F8000006
:1005C00000F00700A84252D120683C4E810712D5A6
:1005D000400703D5706840F4E06070602078000741
:1005E00003D5706840F4605070607068A16820F0B6
:1005F000F000084370602078C00727D060680128A9
:1006000010D03168022810D0890700292FDA7168CC
:1006100021F0030101437160FFF72CFF074641F20F
:1006200088390CE031688903EFE78901EDE7FFF7CE
:1006300021FFC11B494502D90320BDE8F08770683E
:10064000616800F00C00B0EB810FF0D1D8F8001019
:10065000404601F00701A9420BD9016821F00701CA
:1006600029430160006800F00700A84201D0012082
:10067000E3E72078400705D57068E16820F4E06082
:10068000084370602078000706D57068216920F45F
:10069000605040EAC100706000F018F87168084AC4
:1006A000C1F30311515CC840064908600648006860
:1006B000FFF700FF0020C0E70020024000100240CA
:1006C0004E130008140000200C000020104A51684E
:1006D00011F00C0003D0042803D0082803D00D48E3
:1006E00070470D4870470D48C1F38343C903C05C90
:1006F0000AD55168094AC1F34041921E515C064A2D
:100700005043B0FBF1F07047054948437047000083
:100710000010024000127A000024F4003E1300088A
:1007200000093D002DE9F84F04006FD02078BE4D40
:10073000C00747D06868C0F38100012807D0686807
:10074000C0F38100022809D16868C00306D5286873
:10075000800337D560680028E7D033E06068B0F5E3
:10076000803F0BD010B1B0F5A02F11D0286820F435
:1007700080302860286820F4802002E0286840F457
:1007800080302860606888B1FFF774FE064609E093
:10079000286840F480202860F0E7FFF76BFE801B9C
:1007A000642873D828688003F7D50BE0FFF762FE52
:1007B000064604E0FFF75EFE801B6428F1D8286837
:1007C0008003F7D42078DFF8648280074FF0010AB5
:1007D0004FF0000939D5686810F00C0F07D0686831
:1007E000C0F38100022809D16868C00306D42868D4
:1007F000800714D52069012808D110E02069B0B124
:10080000C8F800A0FFF736FE064605E007E1FFF74F
:1008100031FE801B0228C4D828688007F7D52868D5
:10082000616920F0F80040EAC10028600DE0C8F8D6
:100830000090FFF71FFE064604E0FFF71BFE801B3B
:10084000022823D828688007F7D4207800072CD501
:100850007748A169D9B1C0F800A0FFF70BFE0646A2
:1008600004E0FFF707FE801B02280FD8686A8007A4
:10087000F7D570484FF4FA510068B0FBF1F00090E2
:1008800000BF0098411E0091FAD20EE07CE0C0F853
:100890000090FFF7EFFD064604E0FFF7EBFD801B3D
:1008A000022871D8686A8007F7D4207840075BD5A2
:1008B000E8690027C00008D4E86940F08050E8618A
:1008C000E869012700F0805000905B480168C90585
:1008D00011D40168834641F480710160FFF7CAFDBD
:1008E000064604E0FFF7C6FD801B64284CD8DBF801
:1008F0000000C005F6D5E06801280AD008B1052837
:1009000013D0286A20F001002862286A20F0040031
:1009100002E0286A40F001002862E06841F2883B6A
:1009200088B1FFF7A7FD064609E0286A40F00400F9
:100930002862EEE7FFF79EFD811B59455BD8286AC8
:100940008007F7D50BE0FFF795FD064604E0FFF7BB
:1009500091FD811B59454ED8286A8007F7D41FB1F5
:10096000E86920F08050E861E069A8B36968C1F3E4
:100970008101022946D00228484606D0C8F8600006
:10098000FFF778FD044639E035E04746C8F86000D7
:10099000FFF770FD064604E0FFF76CFD801B0228A0
:1009A00029D828688001F7D4206AB0F5803F05D1A6
:1009B0006868A16820F4003008436860D4E9080141
:1009C0000843696821F4741108436860C7F860A09F
:1009D000FFF750FD044605E023E0FFF74BFD001B49
:1009E000022808D828688001F7D51AE0FFF742FDF1
:1009F000001B022802D90320BDE8F88F2868800177
:100A0000F4D40EE00128F7D06868226A00F480313F
:100A1000914204D1616A00F47010884201D0012033
:100A2000EAE70020E8E70000001002400000424230
:100A300080044242140000200070004010B5401EA7
:100A4000B0F1807F01D3012010BD4FF0E024606140
:100A50000F21601700F035FC0020A0610720206105
:100A6000002010BD70B590F83C20012A23D001254C
:100A700080F83C50022280F83D2002685368966856
:100A800023F070040B68234353600C4B02689A42B6
:100A900005D0B2F1804F02D0094B9A4204D1496887
:100AA00026F080031943916080F83D50002180F8C2
:100AB0003C10084670BD022070BD0000002C0140B3
:100AC0000004004010B5040003D094F83D0010B1BC
:100AD00007E0012010BD002084F83C00204600F013
:100AE0001FF8022084F83D00211D206800F09EFAC6
:100AF000012084F8460084F83E0084F83F0084F822
:100B0000400084F8410084F8420084F8430084F8EF
:100B1000440084F8450084F83D00002010BD00002A
:100B200008B500680649884208D10648C16941F005
:100B30000201C161C06900F00200009008BD000020
:100B4000000400400010024070B5044690F83C00DC
:100B50000025012817D0012684F83C60022084F883
:100B60003D002068826822F0770222F47F42826092
:100B70000868502838D00DDC20284FD005DC90B311
:100B8000102811D14AE0022070BD302846D04028FC
:100B90000AD13BE060282FD070280DD0B0F5805FDF
:100BA00003D0B0F5005F12D0012584F83D6000202D
:100BB00084F83C00284670BDCB68D1E9012120684B
:100BC00000F06FFA2068816841F0770109E0CB6896
:100BD000D1E90121206800F064FA2068816841F4BD
:100BE00080418160E1E719E0CA684968206800F047
:100BF00045FB5021206806E0CA684968206800F07B
:100C00004EFB6021206800F031FBCEE7CA684968DE
:100C1000206800F033FB40212068F4E72268014699
:100C20001046F0E710B586B00021009101910291C5
:100C3000039102681B4902241B48B2F1804F23D064
:100C40001A4B9A421ED18A6942F004028A618A696B
:100C500002F0040204928A6942F008028A618969FA
:100C6000039401F0080104914021CDE90014694684
:100C7000FFF724FB0120CDE9000469460C480394EA
:100C8000FFF71CFB06B010BD8A6942F004028A61BE
:100C90008969039401F0040104910321CDE9001452
:100CA0006946EDE7001002400008014000040040E2
:100CB000000C014070B5044690F83C0000260D463B
:100CC00001280FD0012084F83C006AB1042A1DD00D
:100CD000082A2FD00C2A3FD00126002084F83C009F
:100CE000304670BD022070BD206800F045FA2068D3
:100CF000816941F0080181612068816921F0040166
:100D00008161206881692A69114311E0206800F03F
:100D1000D3F92068816941F40061816120688169AB
:100D200021F480618161206881692A6941EA022198
:100D30008161D2E7206800F04BFA2068C16941F078
:100D40000801C1612068C16921F00401C161206806
:100D5000C1692A69114311E0206800F065FA206832
:100D6000C16941F40061C1612068C16921F48061F9
:100D7000C1612068C1692A6941EA0221C161ACE709
:100D800010B5040003D094F83D0010B107E0012035
:100D900010BD002084F83C00204600F01FF802201F
:100DA00084F83D00211D206800F040F9012084F8FE
:100DB000460084F83E0084F83F0084F8400084F840
:100DC000410084F8420084F8430084F8440084F829
:100DD000450084F83D00002010BD000008B5006803
:100DE000B0F1804F08D10548C16941F00101C161EE
:100DF000C06900F00100009008BD00000010024032
:100E000010B5044649B104290AD008290BD094F83A
:100E1000410001280AD0012010BD94F83E00F8E7F7
:100E200094F83F00F5E794F84000F2E7022029B378
:100E3000042926D0082927D084F8410001222068FF
:100E400000F022F912492068884203D1426C42F432
:100E5000004242642068884205D0B0F1804F02D041
:100E60000C49884204D1816801F00701062903D0AA
:100E7000016841F001010160002010BD84F83E00CE
:100E8000DCE784F83F00D9E784F84000D6E70000AB
:100E9000002C014000040040FEE7000000B585B0D2
:100EA00000200190029003901048816941F02001D8
:100EB0008161816901F020010491816941F004019F
:100EC0008161816901F004010491816941F00801A7
:100ED00081618069694600F00800049080200090DC
:100EE0000348FFF7EBF905B000BD00000010024019
:100EF0000008014010B58AB0002407941C21684600
:100F00000894FFF761F919484FF08041C0E90014D7
:100F10004FF6FF71C0E9024104618461FFF730FFC1
:100F200008B1FFF7B6F9079407A910480894FFF72E
:100F300099FD08B1FFF7ADF96020CDE900040294F6
:100F40000022694609480494FFF7B4FE08B1FFF790
:100F5000A0F9042269460548FFF7ACFE08B1FFF787
:100F600098F90248FFF75EFE0AB010BD1800002095
:100F700010B58EB000240794089409940A940B9439
:100F80001C2168460C94FFF71FF923482149016092
:100F90004721C0E9011440F2E731C0E90314802180
:100FA0008161FFF78FFD08B1FFF773F94FF48050AF
:100FB000079007A91848FFF7C7FD08B1FFF769F9BF
:100FC0001548FFF7DDFE08B1FFF763F90B940BA995
:100FD00011480C94FFF746FD08B1FFF75AF960205D
:100FE000CDE900040294002269460B480494FFF7FF
:100FF00061FE08B1FFF74DF9082269460648FFF780
:1010000059FE08B1FFF745F90348FFF70BFE0EB094
:1010100010BD00000004004060000020FEE7FEE775
:1010200070477047FFF72CBA7047000070B5026830
:10103000134C144D4FF08046A04203D0B04201D073
:10104000A84203D122F070034A681A43A04203D099
:10105000B04201D0A84203D122F44073CA681A43B7
:101060004B6922F080021A4302608A68C2620A68F1
:101070008262A04201D1096901630121416170BD11
:10108000002C01400004004010B501F01F010123B5
:10109000046A8B409C430462036A8A4013430362E0
:1010A00010BD10B5846842EA032224F47F440A4349
:1010B0002243826010BD000030B5036A026A22F04C
:1010C00010020262426884690D6824F4E64444EA2E
:1010D00005248D6823F0200343EA05130C4DA84234
:1010E00006D1CD6823F0800343EA051323F04003C3
:1010F00007D14D6922F4406242EA85028D6942EAD5
:1011000085024260846149688163036230BD0000EA
:10111000002C0140FEE710B590B028216846FFF78B
:1011200053F814210AA8FFF74FF801210804CDE96C
:1011300000104200029202240491CDE907404FF4CE
:10114000E01009906846FFF7EDFA08B172B6FEE7C5
:101150000F20CDE90A0400204FF48061CDE90C0195
:101160000E9002210AA8FFF715FA002801D072B6E6
:10117000FEE710B010BD000030B5026A036A23F02C
:10118000010303624368846924F073050C682C43EF
:1011900022F002058A682A430C4DA84206D122F0AB
:1011A0000805CA6842EA050222F0040207D14D6927
:1011B00023F4407345EA03058B6943EA0503436062
:1011C000846149684163026230BD0000002C014027
:1011D00030B5026A036A23F4807303624368C4690A
:1011E00022F4007224F073050C682C438D6842EAE7
:1011F00005220C4DA84206D1CD6822F4006242EAD5
:10120000052222F4806207D14D6923F4405343EA5A
:1012100005138D6943EA05134360C4614968C163DE
:10122000026230BD002C014030B5046A026A22F42B
:10123000805202624268C3690D6823F4E64343EAC0
:1012400005238D6824F4005444EA0534064DA84271
:1012500004D14D6922F4804242EA85124260C361A2
:1012600049680164046230BD002C0140826822F0AC
:1012700070020A4342F007018160704710B5046AAA
:10128000036A23F001030362836923F0F00343EA56
:10129000021324F00A020A438361026210BD10B5F2
:1012A000036A046A24F010040462846923F0A00332
:1012B00024F4704444EA023243EA0111826101627B
:1012C00010BD0907090E002804DB00F1E02080F8BA
:1012D0000014704700F00F0000F1E02080F8141DAA
:1012E00070470000FFF7D4F8FFF715FFFFF7D6FDB2
:1012F000FFF73EFEFFF7FEFD00210E48FFF780FDE1
:101300000C4F0D4C00264FF416752068A84209D2E8
:1013100061680A2902DA491C616004E0401CC4E9E2
:10132000000600E025603968206848630120FEF768
:10133000B3FFEAE760000020000000200102020382
:101340000405060708090A0B0C0D0E0F101000000B
:101350000000000000000102030406070809000065
:101360008013000800000020180000002801000879
:101370009813000818000020F0060000440100083F
:10138000F401000000000000010000001000000057
:08139000000000000024F4003D
:04000005080000ED02
:00000001FF
